:020000040800F2
:100000000000022059270008A5270008550A00080B
:100010005D0A0008650A00086D0A0008000000007B
:10002000000000000000000000000000F5AA000829
:10003000A527000800000000B1AA0008F1A90008E7
:10004000A5270008A5270008A5270008A527000860
:10005000A5270008A5270008A5270008A527000850
:10006000A5270008A5270008A5270008A527000840
:10007000A5270008A5270008A5270008A527000830
:10008000A5270008A5270008A527000800000000F4
:10009000000000000000000000000000A52700088C
:1000A000A5270008A5270008A5270008A527000800
:1000B000A5270008A5270008A5270008A5270008F0
:1000C000A5270008A5270008A5270008A5270008E0
:1000D000A5270008A5270008A527000800000000A4
:1000E000A5270008A5270008A52700080000000094
:1000F000000000000000000000000000A52700082C
:1001000000000000A5270008A5270008A527000873
:1001100000000000000000000000000000000000DF
:10012000A5270008A5270008A5270008A52700087F
:10013000A5270008000000000000000000000000EB
:10014000000000000000000000000000A5270008DB
:10015000A5270008A5270008A5270008A52700084F
:10016000A5270008A52700080000000000000000E7
:10017000000000000000000000000000000000007F
:1001800000000000A527000800000000000000009B
:10019000A5270008A52700080348044B834202D086
:1001A000034B03B118477047C8080020C808002057
:1001B000000000000548064B1B1AD90F01EBA301F4
:1001C000491002D0034B03B118477047C8080020FC
:1001D000C80800200000000010B5064C237843B981
:1001E000FFF7DAFF044B13B10448AFF3008001239B
:1001F000237010BDC808002000000000CCDE0008FD
:1002000008B5054B1BB105490548AFF30080BDE8B3
:100210000840FFF7CFBF00BF00000000CC0800205F
:10022000CCDE0008A3F5803A704700BF174B002BC7
:1002300008BF134B9D46FFF7F5FF00218B460F4685
:100240001348144A121A0CF06FFD0E4B002B00D00D
:1002500098470D4B002B00D0984700200021040048
:100260000D000D48002802D00C48AFF300800CF0C0
:10027000E1FD2000290003F081FF0BF08DFD00BFA0
:100280000000080000000000A9190008000002207A
:10029000C8080020901C00200000000000000000A2
:1002A0000346006818B9186808B9181D1860704727
:1002B000024B1B6803B11847704700BFE4080020D9
:1002C000C36810B504460BB19B689847204610BD23
:1002D000007B704738B50B4B03600023C0E9013148
:1002E00004460D4602730848FFF7DAFF45B1074B95
:1002F0001A6862601C600448FFF7D2FF204638BDD0
:100300006560F8E7C0D40008EC080020E808002089
:1003100010B5124B036004461148FFF7C1FFA368F4
:100320002BB1104962680B68A34210D10A600E4BD2
:100330000B481A68A24204BF00221A60FFF7B0FF00
:10034000237B13B9201F01F02FFA204610BD194658
:100350005B68A342FBD14A60E9E700BFC0D4000854
:10036000EC080020E8080020F408002010B504463E
:10037000FFF7CEFF2046102101F012FA204610BDF3
:10038000F8B5064614480D46FFF78AFF134B1C6864
:1003900094B1A76877B138460CF0E0FDA84209D1C6
:1003A0002A46314638460CF095FC18B90A48FFF742
:1003B00077FF0FE06468EBE7072DF7D108482A467E
:1003C00031460CF087FC0028F0D10348FFF768FFA6
:1003D000044B1C682046F8BDEC080020E80800200B
:1003E000B0D40008F40800200020704700207047B7
:1003F000036801221B6900211847036800221B695A
:10040000114618476FF01500704703681B691847BD
:1004100003689B69184703689B6A184700290CBF4B
:100420006FF0180000207047012070476FF0150032
:1004300070476FF0150070471120704770470368D0
:1004400070B51B690122002104469847051E0DDB8B
:10045000236802221B69002120469847236806462C
:1004600029461B690022204698473546284670BD1C
:1004700070B50D460026C0E900660C4904462846C2
:100480000CF05AFC28442060314623681A782F2A41
:1004900006D101332360FFF773FF6060204670BD13
:1004A000002AF8D0013301312360EEE724D500089B
:1004B00000687047406808B520B1FFF709FF431E88
:1004C0005842584108BD10B50446FFF7F3FF10B17C
:1004D000606800B1043810BD406808B520B1FFF76E
:1004E000F7FEB0FA80F0400908BD10B50446FFF7EA
:1004F000F3FF10B1606800B1043810BD40680038E7
:1005000018BF01207047C36810B504460BB19B6843
:100510009847204610BD036818470B680360704772
:10052000704783681A6843681A4214BF012000208C
:100530007047884238B504460D460ED0FFF7C0FE1E
:100540001022002120460CF0EFFBEB681BB15B682A
:10055000294620469847EB68E360204638BD0000F6
:1005600010B5044621B910220CF0DEFB204610BD68
:100570000022034B426082600160C360F6E700BF67
:1005800028D5000807B5002303760191009000F0FC
:100590003FFCDDE9000101F03DFE00F043FC009866
:1005A00003B05DF804FB07B501908DED000A00F083
:1005B0002FFC9DED000A019801F0DEFE03B05DF80E
:1005C00004EB00F02FBC037E10B504461BB900F00D
:1005D000AFFE0123237610BD07B58DED010A009013
:1005E00000F016FC0098FFF7EEFF9DED010A009861
:1005F00001F0F0FC03B05DF804EB00F013BC037EE7
:1006000010B504461BB100F0A7FE0023237610BDF1
:1006100007B5019000F0FCFB019801F0D5FC0198B2
:10062000FFF7EDFF00F0FEFB019803B05DF804FB5F
:10063000704700F08DB8A0F1B400FFF7FABF00F0EA
:100640008AB8A0F1B400FFF7FABF00000A4B10B55A
:1006500003F10802026003F1280294330446C0F853
:10066000B420C0F8B830B43000F0C4F9204600F02F
:100670001DF9204610BD00BF68D70008A0F1B400E6
:10068000E4E7A0F1B800E1E710B50446FFF7DEFFAC
:100690002046D02101F084F8204610BDA0F1B4001E
:1006A000F2E7A0F1B800EFE77047704738B50446AD
:1006B0001D46049B00F056F8294604F1B40000F0F2
:1006C00071F9064B03F10802226003F1280294330A
:1006D000C4F8B420C4F8B830204638BD68D7000844
:1006E000704701F1090300EB0313DA6832B100EB44
:1006F00001111846D1F89C201268104770474168D4
:1007000030B4034671B1D0E9032000F0010402B90E
:1007100044B1451001EB60000CB149598A58996801
:1007200030BC104730BC704770B50646044656F8DA
:10073000443B0D461B6898473046294601F074FE3D
:100740002368C4F8B05020465B68BDE87040184785
:10075000443001F0DDBF10B544300C4601F0EAFF33
:10076000204610BD2DE9F04F87B0002501932F4B97
:10077000036010262E4B43600446C0E90355C0E9D0
:10078000055588469146858332462946806020304B
:100790000CF0CAFA04F144073246294604F130004D
:1007A0000CF0C2FA04F1900A2946A4F840504C22F9
:1007B00038460CF0B9FA04F1A00B324629465046EF
:1007C0000CF0B2FA3246294658460CF0ADFA019BBD
:1007D000C4F8B0303246294602A80CF0A5FA02A9A6
:1007E0005046FFF7A6FE02A8FFF76AFD32462946EB
:1007F00002A80CF099FA02A95846FFF79AFE02A83F
:10080000FFF75EFD4A464146384601F027FED4F820
:10081000B010384601F008FE38460649224601F07D
:100820001BFF204607B0BDE8F08F00BF0CD80008C2
:10083000FF060008E30600082DE9FF41036815469E
:100840000F4604461B6805F10906984704EB061697
:1008500000F0DEFAFA68F36804F14408A2B10BB9BB
:1008600000F066FD39463046FFF763FE0122294657
:10087000404601F0FDFE00F0D5FA236820465B6893
:10088000984704B0BDE8F0810BB100F065FD10227F
:10089000002168460CF048FA69463046FFF749FEE9
:1008A0006846FFF70DFD0022E1E700001FB51A4B77
:1008B000036004461022002168460CF035FA00223D
:1008C00069462046FFF7B8FF6846FFF7F9FC10229B
:1008D000002168460CF028FA012269462046FFF7FD
:1008E000ABFF6846FFF7ECFC04F1A000FFF7E8FC63
:1008F00004F19000FFF7E4FC04F13000FFF703FE81
:1009000004F12000FFF7FFFDA06908B1FFF7D0FC5C
:10091000204604B010BD00BF0CD8000810B5044636
:10092000FFF7C4FF2046B42100F03AFF204610BD77
:100930007047704700207047F8B50368DB6D0D46BF
:1009400004468F1898472E46BE42236806D05B6D3A
:1009500016F8011B204698470130F5D12368204640
:100960001B6E9847701BF8BDF8B50368DB6D0D462C
:1009700004468F1898472E46BE42236807D09B6DC9
:1009800020469847431C02D006F8010BF4E7236881
:1009900020461B6E9847701BF8BD00207047002052
:1009A000704770470F4B13B50022044640F8043BD4
:1009B000FFF790FC0C4B23606C3363600023636192
:1009C0000A49204600F038FF0346606128B90090CC
:1009D00002460146064800F0DBFA00F057FD2046CB
:1009E00002B010BDD0D4000894D800081CD800086C
:1009F000190101800A4B03F10802743310B5044653
:100A00000260436040690BF067FC064B23602046A0
:100A10005C3340F8043FFFF77BFC204610BD00BF6D
:100A20008CD8000828D8000838B503680446DB6D68
:100A30000D4698470122606900210BF087FE61692D
:100A400028460BF079FE236805461B6E2046984722
:100A5000284638BD4FF0100300F00CB84FF02003CB
:100A600000F008B84FF0300300F004B84FF0400336
:100A700000F000B8EFF308804FF0040172460A421C
:100A800001D0EFF309809C46254B196802680A6083
:100A9000043142680A60043182680A600431C26825
:100AA0000A600431F0C147460F6004314F460F60C1
:100AB000043157460F6004315F460F60043102690C
:100AC0000A60083142690A60043182690A600431AF
:100AD000C2690A600431034620334FF40076324283
:100AE00000D0043375464FF01006354200D148332C
:100AF0000C46103C2360EFF309820A600431EFF3E7
:100B000008820A60043172460A600431EFF31482ED
:100B10000A606046024B196800F0FAFAFEE700002E
:100B2000ECDA000830B591FAA1F391FAA1F1B3FA29
:100B300083F304685B000325B1FA81F105FA03F33E
:100B4000490024EA03038A401343036030BD0000D8
:100B50007FB52B4B002207284FD8DFE800F00412A6
:100B60001E2A364E4E4200921A6B264842F001026F
:100B70001A631B6B03F001030093009B07B05DF841
:100B800004FB01921A6B204842F002021A631B6BAD
:100B900003F002030193019BF0E702921A6B1B48DA
:100BA00042F004021A631B6B03F004030293029BDE
:100BB000E4E703921A6B164842F008021A631B6BB3
:100BC00003F008030393039BD8E704921A6B1148C0
:100BD00042F010021A631B6B03F010030493049B92
:100BE000CCE705921A6B0C4842F080021A631B6B2B
:100BF00003F080030593059BC0E7084800F0B4F9B3
:100C00000038024000000240000402400008024098
:100C1000000C024000100240001C024008D90008ED
:100C200010B54FF47071044604F00F0401F0FAF8A7
:100C30000120A04010BD00004B1C70B504460E46BC
:100C4000018216D0C1F30310FFF782FF054630463C
:100C5000FFF7E6FF238A074A656103F00F03206070
:100C600052F82330A36105F110031835C4E9025589
:100C7000636070BD90DB0008B0F9100001F04EB960
:100C80000A46D0E905010AB9FFF74CBF0122FBE78C
:100C900008B502F06FFC002008BD000008B50A4B43
:100CA0001B684BB101F074F801F060F84FF47A72F0
:100CB00000230AF0F3FE08BD044B586A4FF47A7320
:100CC000B0FBF3F0F7E700BF90090020000C0040F4
:100CD00003460122D3E84F0FC3E8412FC0B20029D9
:100CE000F8D17047D0E85F3F5B18C0E8523F002A58
:100CF000F8D198B27047D0E85F3F5B1AC0E8523F26
:100D0000002AF8D198B27047D0E84F3FC0E8421FA0
:100D1000D8B2704700B589B000F07AF8052101A873
:100D200000F07AFA114E124D0424039B019A1A60C6
:100D3000304601F03BF8019B049A1B0413603046D7
:100D400001F034F8013CF0D10424039B019A1A60AD
:100D5000284601F02BF8019B049A1B0413602846D7
:100D600001F024F8013CF0D1DEE700BFF0490200B9
:100D7000801A060007B5014600220190022000F00B
:100D80000BFC00F045F8019908460CF0E7F80199D2
:100D90000246022000F000FC03B05DF804EB00F016
:100DA00041B8000000B5A3B002460B4601A884215B
:100DB0000BF04CFE832806D9074B1A681B79CDF837
:100DC00083208DF88730002802DD01A8FFF7D2FFCD
:100DD00023B05DF804FB00BF29D900080FB407B5A4
:100DE00004A951F8040B0191FFF7DCFF03B05DF893
:100DF00004EB04B07047EFF31080C04300F0010033
:100E00007047EFF30580003818BF012070470000DD
:100E100008B500F013F8024A13680133136008BDE7
:100E2000F8080020044A136823B1013B13600BB992
:100E300000F016B8704700BFF8080020EFF31083E9
:100E400072B6054A117831B90449DB4303F0010356
:100E50000B70012313707047FD080020FC08002070
:100E6000034B00221A70034B1B7803B162B6704724
:100E7000FD080020FC08002008B50B48FFF728FFFC
:100E800028B1FFF7C5FFBFF34F8F20BFFDE7FFF786
:100E9000B8FF08B1FFF73EFFFFF7ADFF0028F9D01C
:100EA00001200AF079FF00BF4C09002070B51D4CED
:100EB00090B034EA200428BF04460D4616460021AF
:100EC000342203A80BF030FFCDE900460295FFF76E
:100ED0009FFF154A13680133012B13600BD16D4638
:100EE0000FCD124C0FC40FCD0FC40FCD0FC495E81A
:100EF0000F0084E80F006C460FCC0D4D0FC50FCCD2
:100F00000FC50FCC0FC594E80F0085E80F00094B03
:100F10001B6813B1A5F130009847FFF783FF00204D
:100F200010B070BD0101FF80000900200C090020F5
:100F3000500900200409002030B50A4D034600F195
:100F40003C04002013F8012B80EA026008220028EC
:100F50004FEA4000B8BF6840013AF8D1A342F1D14E
:100F600030BD00BFB71DC1040FB407B5012106484D
:100F7000CDF804E0FFF7C8FE019A014610B9034816
:100F8000FFF794FFFFF778FF080900200001FF80BA
:100F900008B5044601211D4876461546FFF7B4FE04
:100FA00020B9324629462046FFF780FF1848194CE1
:100FB000174DFFF7C1FF184BD3F8BC2082420ABF80
:100FC000D3F8B43001230133636320460023A363C5
:100FD000FFF7B2FFE063FFF71BFF0FCC0FC50FCC8D
:100FE0000FC50FCC0FC594E80F0085E80F00FFF781
:100FF00019FFBFF34F8F0949094BCA6802F4E06239
:101000001343CB60BFF34F8F00BFFDE708090020FB
:1010100018020020500900209801002000ED00E097
:101020000400FA05F0B52C4E2C4F85B0002435464F
:10103000214656F8042B38460134FFF7CFFE0D2C1D
:10104000F6D1AB6C02936B6C01932B6C244C009328
:10105000D5E90E23696B2348FFF7C0FE21682248BB
:10106000FFF7BCFEE16AA26AA36AA06A266BE76B7F
:10107000000CCDE901670090C3F307231B48D2B2EF
:10108000FFF7ACFEA36A1E0603D5616B1848FFF795
:10109000A5FEA36A180403D5A16B1648FFF79EFEB0
:1010A000EB6C190712D51448FFF798FE2B6DDA0781
:1010B0000FD51248FFF792FEEB6C5B074CBF104850
:1010C000104805B0BDE8F040FFF788BE0E48FFF7B6
:1010D00085FE0E48EEE700BF980100202ED90008DB
:1010E00000ED00E03CD900088BD9000899D9000830
:1010F000E8D90008F6D9000804DA000813DA000875
:1011000043DA00084FDA000833DA000820DA000872
:1011100013B504461548FFF761FE302C17D0402C5C
:101120001AD0202C1DD11248124CFFF757FE12483E
:10113000FFF754FEFFF776FF1048FFF74FFE104A07
:10114000104900230093D26B2046FFF721FF0E4881
:101150000E4CFFF743FEEAE70D480E4CFFF73EFE4C
:10116000E5E70D480D4CFFF739FEE0E75BDA0008D4
:1011700084DA00083E01FF80B1DA0008BCDA00081A
:1011800098010020DBDA000893DA00083F01FF80B5
:101190009CDA00084001FF80A7DA00083D01FF80CB
:1011A00070B50E4604461546FFF746FD013609D0D8
:1011B00020460021FFF764FD29462046BDE8704027
:1011C000FFF75ABD70BD38B5036804460D465AB1E5
:1011D0008268136020460121FFF752FD2946204610
:1011E000BDE83840FFF748BDC2681B04F1E70022A4
:1011F000FFF7D6BF37B50D4604460192FFF71CFD39
:10120000013507D0019A0021204603B0BDE83040E7
:10121000FFF7D9BF03B030BD0022FFF7EBBF0000DE
:1012200008B502F055F901F0BFFA02F043F902F0F7
:101230004FF9024B01221A6008BD00BF900900203F
:101240001FB5431C10D105B05DF804FB83420AD1E1
:101250008968039000F0E6FD0398002105B05DF871
:1012600004EB00F05BBE0C31B1F900305A1CEDD13B
:1012700000230246009302481946FFF789FE00BF8B
:1012800030010180884207B502460AD0431C08D0CD
:10129000013105D00023054800931946FFF778FE79
:1012A0000146084603B05DF804FB00BF3001018031
:1012B000B1F900305A1C01D118467047834201D160
:1012C000486870470C31F3E7421C13B504460AD056
:1012D000FFF7EEFF431C06D100230448009322468B
:1012E0001946FFF755FE02B010BD00BF3001018066
:1012F000B1F900305A1C01D118467047834201D120
:10130000886870470C31F3E7421C13B504460AD0D5
:10131000FFF7EEFF431C06D100230448009322464A
:101320001946FFF735FE02B010BD00BF3001018045
:1013300013B5074C01212046FFF7D4FC034628B91A
:101340000090014622880348FFF722FE02B010BD3C
:10135000940900202301048013B5094C0121204683
:10136000FFF7C9FC4FF6FF73984206D1002322888D
:10137000044800931946FFF70BFE02B010BD00BFF2
:1013800094090020240104806FF01C0070476FF066
:10139000150070470120704700207047704700001B
:1013A000F8B5074E15460C468F18BC4205D014F808
:1013B000011B304601F0BEF9F7E72846F8BD00BF33
:1013C0003C1B002038B511F001048DB205D008484F
:1013D00000F0DEFF041E18BF0124EB0605D504480B
:1013E00000F0ECFF08B144F01004204638BD00BF07
:1013F0003C1B002010B504460AF0E8FC204610BD56
:1014000010B50C462AB1044801F082F92070012081
:1014100010BD1046FCE700BF3C1B002038B51D4640
:10142000074B0360074B1B68044633B9064801F0BD
:1014300015F80548294600F0F7FF204638BD00BFE3
:10144000F8DA0008240A00203C1B00200020704726
:101450000020704708B501200AF09EFC074A0849A1
:1014600013681844884289BF064B10600C224FF065
:10147000FF308CBF1A601846704700BF9C030020E5
:1014800000FC0120341B00200120704700210BF0DC
:10149000B9B97047704708B5FFF7FBFF08BD08B53D
:1014A000FFF7F8FF08BD037803F00303012B09D011
:1014B000037803F00302012A04D043F0020303700F
:1014C0000120704700207047037823F0030343F0A6
:1014D00001030370704700003F2870B504462FDCFD
:1014E000184D55F820305A1C13D1022811DCFFF793
:1014F000AFFF034658B92046FFF7A8FF034630B9AF
:10150000114E3378BFF35B8FDB0704D50F4B45F8E3
:101510002430184670BD3046FFF7C5FF0028F5D0CF
:101520004FF41653032202210848FFF777FF304695
:10153000FFF7CAFF064A07490448FFF7A5FFE5E79A
:101540000023E6E79C02002098090020A40900205F
:10155000980200209D13000838B50546FFF7BCFF30
:101560000B4B002443F8254030B90BF05DFC0923F8
:1015700003604FF0FF3038BD03685B699847051E74
:1015800004DA0BF051FC6D420560F2E72046F2E709
:101590009C020020FFF7E0BF13B5CDE90021FFF763
:1015A0009BFFDDE9002140B90BF03EFC09230360FD
:1015B0004FF0FF34204602B010BD0368DB68984747
:1015C000041EF7DA0BF030FC64420460F0E708B563
:1015D000131E07DA0BF028FC162303604FF0FF33CD
:1015E000184608BDFCD0FFF7D7FF40EAE073F7E7E5
:1015F00013B5CDE90021FFF76FFFDDE9002140B908
:101600000BF012FC092303604FF0FF34204602B0B8
:1016100010BD03689B689847041EF7DA0BF004FCC2
:1016200064420460F0E7002A08B503DBBDE8084027
:10163000FFF7DEBF0BF0F8FB162303604FF0FF301F
:1016400008BD10B5FFF748FF044628B90BF0ECFBC6
:1016500009230360204610BD0368DB699847041E18
:10166000F8DA0BF0E1FB644204600024F2E737B5DE
:101670004023CDF80100054668468DF800300BF098
:101680002FF8044630B12846FFF7DBFF10B12046A3
:10169000FFF7FCFE204603B030BDFFF7D2BF13B505
:1016A000CDE90021FFF718FFDDE9002140B90BF07B
:1016B000BBFB092303604FF0FF34204602B010BD8E
:1016C00003681B699847041EF7DA0BF0ADFB644210
:1016D0000460F0E7FFF7E3BF10B5FFF7FDFE30B998
:1016E0000BF0A2FB092303604FF0FF3010BD03682D
:1016F0009B699847041E04DA0BF096FB6442046071
:10170000F2E70020F2E700000A4D08B52B68044616
:1017100098680AF097FE2B68D8680AF093FE0120BB
:10172000FFF7DAFF0220FFF7D7FF0CB1FFF7F2FA5D
:10173000FEE700BFB408002038B50D46FFF7CCFE29
:10174000044630B90BF070FB092303604FF0FF3003
:1017500038BD0368DB699847002814BF4FF4005375
:101760004FF400436B60236820469B6A98472861CA
:101770000020EDE7FFF7E0BF1FB503900AF01EFB66
:10178000039A034620B9009001460348FFF700FC86
:1017900005B05DF804FB00BF1F010180FFF7ECBF3F
:1017A0000AF014BB0AF012BB10B504460848FEF755
:1017B00077FD084A4023002152F8040BA04208BFDD
:1017C00042F8041C013BF7D10148FEF769FD10BD4A
:1017D0009C0900209C02002010B50F48FEF760FD18
:1017E0000E4B032453F824206AB10134402CF9D164
:1017F0000BF01AFB182303600748FEF751FD4FF06A
:10180000FF34204610BD4FF0FF32034843F8242038
:10181000FEF746FDF5E700BF9C0900209C02002072
:1018200010B50446FFF7D8FF0028A4BF014B43F8CA
:10183000204010BD9C02002073B506460191FFF7C1
:10184000EFFF051E13DB0199FFF711FF044630B9C6
:10185000084B53F82520964204D143F82500204632
:1018600002B070BD0BF0E0FA09230360F7E7002433
:10187000F5E700BF9C0200200EB42DE9F04187B0CF
:101880000190FFF7A9FF041E13DB002301990393C6
:1018900004A8FEF7EDFD04A8FEF730FE1B4E05463A
:1018A00068B90BF0C1FA1323036046F824504FF0D7
:1018B000FF34204607B0BDE8F04103B0704704A8EC
:1018C000FEF70AFE074604A837B1FEF70EFE0390A6
:1018D000039B46F82430ECE7FEF7F5FD05460028AB
:1018E000DFD0036804A8D3F80880FEF7E1FD0D9B64
:1018F000024603A92846C04705460028E8D00BF059
:1019000093FA6D42056046F82470D0E79C020020EF
:1019100070B50E46154905460BF0B4FA044618B9E1
:10192000FFF7DAFD204670BD114928460BF0AAFAF0
:1019300020B90120FFF7D0FD0124F3E70D49284627
:101940000BF0A0FA20B90220FFF7C6FD0224E9E758
:101950002B78402B02D1D5F80140E3E726F4004173
:101960002846BDE87040FFF787BF00BF54DB000882
:101970005BDB00084CDB000870470000084B09499E
:1019800098684FF00053C21802F16042126843F8A1
:10199000042B8B42F7D1024B4FF000529A607047F4
:1019A00000ED00E09801002008B5FFF7E7FFFFF722
:1019B00037FC01F033FEFFF7DFFF08BD2DE9F74FDD
:1019C000446894F83A100646002955D101684968E0
:1019D00088477168096A814205464DD0206AE168EE
:1019E000A6682562281A0140384886428C464FF086
:1019F000000E39D094F83BB0D4E90A5A0027A1FB75
:101A00000001BBF1000F46D0CBF1200801FA08F825
:101A100020FA0BFCABF1200E21FA0EFE4CEA080C6A
:101A20004CEA0E0C2D1821FA0BFEABF120094AEB03
:101A3000010ACBF120080EFA0BF10CFA09F941EA80
:101A400009012CFA08F80CFA0BF02B1A41EA0801EC
:101A500000936AEB01030193DDE90023BB4208BF59
:101A6000B2420CD2C4E90A23D4E90C0110EB0C00F9
:101A700041EB0E01C4E90C0103B0BDE8F08F009BFF
:101A80001CF1010C4EF1000E9A1B019B63EB070346
:101A9000C4E90A23E8E732463B4609F0FFFF12EBB0
:101AA000050843EB0A09B94508BFB04584468E4690
:101AB00002D2C4E90A89D7E710F1010C41F1000E06
:101AC000B8EB060269EB0703E2E700BF40420F00F4
:101AD000824206D98A420BD9884294BF0020012055
:101AE0007047884206D98A428CBF00200120704787
:101AF00001207047002070472DE9F74FD0F804808F
:101B000098F83A300746002B40F0818098F8393039
:101B1000002B7CD1FFF752FF7E683A687368019210
:101B2000002B66D0D6E90C01D3E90023994208BF07
:101B3000904205D3019B5B6903B0BDE8F04F1847A5
:101B4000141A63EB0105D6E90623AB4208BFA24293
:101B5000D6F8109006D3B2682E4B9A4219D1A145FF
:101B600028BFA146326A019B9144F2681B6909EAC9
:101B700002021046019298473B685B689847019AB9
:101B80000146D8F82000FFF7A3FF00283FD03B68AC
:101B9000D1E796F83B30EBB1A3F1200CC3F1200262
:101BA00024FA02F204FA03F005FA03F104FA0CFC39
:101BB000194C41EA0C0111430019164A4FF0000478
:101BC0004FF0000344EB010109F068FF814528BF95
:101BD0008146C7E71048A2FB04AB02FB05BB1AEB2A
:101BE00000004FF000010B4A4FF000034BEB0101E6
:101BF000EAE7D8F81030D8F82000D8F80C201844BC
:101C0000019B1B69104003B0BDE8F04F184703B0BB
:101C1000BDE8F08F40420F003F420F002DE9F04F2A
:101C2000436893F8382085B00546002A63D193F8BD
:101C30003A30002B5FD103681B6898472B68DB693B
:101C4000984703682BB92D4800931A461946FFF7A9
:101C50009FF91F21012202FA01F4A3425FFA81FADF
:101C600002D00139F7D18A464668321F1C2A05D9AD
:101C70000023234800931A461946E8E71C4614F14E
:101C8000FF384FF000031F494FF0070743F1FF39BA
:101C90009740C1FB078922464046494609F0FEFEAF
:101CA0006B682A6803934FF00008C3E90088526804
:101CB000894683469047039B0122186202FA06F682
:101CC0006B6800210020013EC3E90A01C3E90C0151
:101CD000C3E903672846C3E906B99C6083F83BA0C3
:101CE0001A8783F83A80FFF769FE284605B0BDE8F9
:101CF000F04FFFF701BF05B0BDE8F08F0E01048083
:101D00000501048040420F0070B50446FFF780F8DB
:101D10002368DB689847636893F83A201AB1BDE8F6
:101D20007040FFF77FB8012283F8392063685B6851
:101D3000A3B12046FFF742FE65686E68D5E90C0145
:101D4000D6E90023994208BF904207D3F3686B603D
:101D50002B68002BEAD0B0689847E7E76368002259
:101D600083F839202046FFF7C7FED8E738B5044688
:101D7000FFF754FFFFF74CF82046FFF71FFE63689C
:101D8000D3E90C45FFF74EF82046294638BD704789
:101D90000048704764DB0008024B1B680BB1024827
:101DA00018477047A003002064DB0008034B596A02
:101DB0005A6A521A8242FBD3704700BF000C00409F
:101DC00030B591FAA1F391FAA1F1B3FA83F38468E3
:101DD0005B000325B1FA81F105FA03F3490024EA17
:101DE00003038A401343836030BD30B591FAA1F3F9
:101DF00091FAA1F1B3FA83F3C4685B000325B1FA49
:101E000081F105FA03F3490024EA03038A401343EE
:101E1000C36030BD012A02D0022A18BF0022FFF79A
:101E2000E4BF00002DE9F84300F00F023A4B1FFA1F
:101E300080F9C0F3031053F82270C1F3831801F046
:101E400007060D46FEF784FEB8F10F0F0CBF032204
:101E5000424639460446FFF7B3FF022E28D0032E30
:101E600058D0711E4B424B4197FAA7F2B2FA82F258
:101E700021685200032000FA02F221EA020197FAD7
:101E8000A7F2B2FA82F252009340013E0B43012EB8
:101E9000236005D863682A074CBF3B43BB4363609C
:101EA000C5F3011239462046BDE8F843FFF7B2BF3B
:101EB00019F0080FC5F3832217D03B0A93FAA3F158
:101EC000B1FA81F1406A93FAA3F389004FF00F0C45
:101ED000B3FA83F30CFA01F19B0020EA010102FA44
:101EE00003F30B4363620223BEE797FAA7F1B1FA4B
:101EF00081F1036A89000F2000FA01F123EA010150
:101F000097FAA7F3B3FA83F39B0002FA03F30B43A8
:101F10002362E8E73346A7E790DB000838B500F016
:101F20000F021F4BC0F3031053F822500C46FEF76C
:101F30000FFE95FAA5F2B2FA82F35A000168032364
:101F4000934095FAA5F2B2FA82F20B405200D340C8
:101F5000013B012B1AD8E31E022B436809D82B43FF
:101F6000032C43601AD101222946BDE83840FFF70F
:101F700051BF23EA0503012C4360F4D0022C0BD09F
:101F800029460022BDE83840FFF72FBF04F0FD03CB
:101F9000012BE8D0052CF1D10222E5E7052CEEE774
:101FA00090DB00084B7D2BB1082807D8044B33F891
:101FB000100070470C2801D8024BF8E7002070474A
:101FC000FCDB00080EDC0008B0F904004FF470716F
:101FD000FFF728BFF0B52E4B07681F60B5EEC00AAB
:101FE000F1EE10FA89B004463ED4F7EE007AB4EE72
:101FF000670AF1EE10FAC8BFB0EE670AD4ED037AB3
:10200000F8EE677A67EE807A17EE900A09F0A6F983
:10201000204B002209F044F809F0D0FC6023227D17
:1020200001930023CDE90533039304930793531ED3
:10203000032BA6682061B0FBF6F6029622D86FF05B
:10204000030505EB820521462846FFF7ABFF3B6AF7
:1020500030EA03030BD00E482A4601A900F08EFF98
:1020600050B10D48FEF780FF9FED0C0AC6E707F15F
:102070003403AA1043F82260637D054829461BB14A
:1020800001F020F809B0F0BD00F0FCFFFAE700BF56
:10209000E80900200000E03FD0DB0008000000005D
:1020A000C3689BB190ED047A07EE903AB8EE477A98
:1020B000F8EE677A87EE270AF7EE007AB4EE670A41
:1020C000F1EE10FAC8BFB0EE670A70479FED010A43
:1020D000704700BF000000002DE9F0412DED028B9C
:1020E000474C0268226086B000230E4600930546E6
:1020F000FFF7D6FF116A41F211131942B0EE408A80
:1021000008D1116A40F24443194202BF136823F018
:102110000103136001A8694600F0F2FD2868394BFD
:102120000022D1B2013253F831708742F9D110B98F
:102130003548FEF719FF03EBC1031B79002B3CD197
:1021400000F0BEFDDDF810C000900099012301FAF7
:1021500003F0AB602D4BB0FBF3F0B1FBF3F1BCF13E
:10216000000F30D14A1E771E6260E7603B464FF099
:1021700000084FF6FE7EB3F5803F26D2B2F5803FD1
:1021800023D2B8F1000F01D06260E36000231C4845
:102190002361A36000F0ACFE50BBEE60B0EE480AD5
:1021A0002846FFF717FF2268136843F00103136006
:1021B00006B0BDEC028BBDE8F08100F091FDDDF8CA
:1021C00014C00090C1E7421ECDE7AB685B00AB6076
:1021D000BCF1000F0ED101FB03F2B7FBF3F3734523
:1021E00002F1FF3209D8B2F5803F06D36260E360A6
:1021F00007489EE700FB03F2EFE74FF00108BAE75C
:10220000E809002028DC0008E7DB000840420F0056
:10221000D0DB000830B50D4604464E4989B028464B
:10222000FFF752F84B4920602846FFF76DF8C0F3DE
:102230008433494A23752368C0F3C04093426075D4
:102240004FF000021AD10092444A516C41F0010152
:102250005164526C02F001020092009A404A93428B
:102260004CD1002305933D4B5A6C42F480325A64A2
:102270005B6C03F480330593059B16E0B3F1804F4C
:1022800025D038498B422ED037498B4246D037492A
:102290008B42E3D1314B04921A6C42F008021A646B
:1022A0001B6C03F008030493049B2A492846FEF79D
:1022B000C7FF0023C4E9033344F62061012320460D
:1022C000A580A36009B0BDE83040FFF705BF0192CB
:1022D000224A116C41F001011164126C02F00102FA
:1022E0000192019ABAE702921C4A116C41F0020174
:1022F0001164126C02F002020292029A1C4A93428A
:1023000017D100230693154B5A6C42F400325A64DD
:102310005B6C03F400330693069BC6E703920F4AF7
:10232000116C41F004011164126C02F0040203927A
:10233000039A104A9342B8D100230793074B5A6C73
:1023400042F480225A645B6C03F480230793079B5A
:10235000ABE700BF34D50008000001400038024060
:10236000004001400004004000080040000C004014
:102370000044014000480140DFED047A20EE270AC6
:10238000FDEEC07A17EE901AFFF7A6BE002474493E
:102390004368094A9B0182B0D3581A68120706D5D0
:1023A000002201921A6801925A680192019A1868F3
:1023B000C0F3401002B07047881B00204368034AF6
:1023C0009B01D3581868C0F3C0107047881B0020C9
:1023D00003464068134A810110B41C688C5002EB1C
:1023E00080109A684260DA6882601A69C2605A692D
:1023F00002611A6A82610022C284C2618284C2853B
:102400008285B3F91A20013205D108235DF8044B07
:10241000436100F06EBFB3F9183001330CBF0423E1
:102420000C23F3E7881B00208160FFF7D1BF000079
:10243000094B98420BD0A3F54C43984209D003F5C1
:102440005043984214BF4FF0FF30022070470020E5
:1024500070470120704700BF00100140F0B50E46E4
:1024600085B04149044630461546FEF72DFF3F49E9
:1024700007462846FEF728FF01463846FEF702FFCA
:10248000022E20600AD0032D08D037490220FEF723
:102490001BFFB84244D13648FEF766FD0127354B95
:1024A000206898424FF000033CD10193324B5A6CA4
:1024B00042F010025A645B6C03F010030193019B1D
:1024C000FFF7B6FF284960603046FEF7B9FE2846A0
:1024D0002649FEF7B5FE701C03D001213046FFF7F8
:1024E0001DFD691C03D001212846FFF717FD0023BD
:1024F0004FF41652C4E90223C4E90433236226834D
:1025000065832046FFF764FF5FB31C4B1C48012224
:102510001A6021464C2205B0BDE8F0400AF010BD1B
:102520000027BCE7174A90420FD002F55042904274
:10253000C6D10393104B5A6C42F020025A645B6C74
:1025400003F020030393039BBAE702930A4B1A6C30
:1025500042F400321A641B6C03F400330293029BB2
:10256000AEE705B0F0BD00BF14D70008C0D6000824
:1025700070DC00080010014000380240240A0020EE
:102580003C1B002000440040F7B5FFF751FF041E3C
:1025900026DB144F57F8240010B3134DA601AB5996
:1025A0001A68120606D5DB68190603D50F4B012100
:1025B0001B689847AB591A68920608D5DB689806DD
:1025C00005D50A4B57F824001B6800219847AB59E2
:1025D0001A68110704D55A69D20744BF5B68019392
:1025E00003B0F0BD2C0A0020881B0020280A002020
:1025F0000148FFF7C9BF00BF001401400148FFF7C1
:10260000C3BF00BF004400400148FFF7BDBF00BF8B
:1026100000100140002808DB0123420900F01F00E0
:1026200003FA00F0014B43F82200704700E100E09C
:1026300000280DDB4309012200F01F0002FA00F020
:102640002033044A42F82300BFF34F8FBFF36F8F4C
:10265000704700BF00E100E0034B19604168034B85
:1026600043F82120704700BF280A00202C0A0020D0
:10267000D0E9000330B4204CA0421BD004F58064A4
:10268000A0421DD0A4F55044A04216D000242046FC
:102690001A4D9B01EB58CAB1DA68A1B942F0200289
:1026A000DA60174B00F110029B6843F8224030BCFF
:1026B000FFF7B0BF134C2520EAE7134C2620E7E7CD
:1026C000124C4720E4E742F08002E9E7DA6849B9B2
:1026D00022F02002DA60DB6813F0800F09D130BCF1
:1026E000FFF7A6BF22F08002DA60DB6813F0200F4C
:1026F000F4E730BC704700BF00100140881B002089
:1027000000ED00E009260008FD250008F12500087D
:1027100038B5456804462046FFF73AFE0028FAD04F
:10272000AD01034B5B595868C0F3080038BD00BFCA
:10273000881B002070B5466805460C462846FFF702
:102740003DFE0028FAD0034BB601C4F308049B59A0
:102750005C6070BD881B0020DFF830D0002103E0F2
:102760000B4B5B58435004310A480B4B42189A42BA
:10277000F6D30A4A02E0002342F8043B084B9A428F
:10278000F9D300F0F9FDFDF751FD7047000002207C
:10279000D8DE000898020020C8080020C8080020E1
:1027A000901C0020FEE7704708B50B4B1A6842F4F6
:1027B00000721A601A6842F480621A601A6842F461
:1027C00080721A60032000F01DF80F20FEF760FAF7
:1027D000FFF7E9FF002008BD003C024038B5044681
:1027E000FEF75CFA631C1CBF054B1B78054618BF3F
:1027F000E418FEF753FA431BA342FAD338BD00BFD7
:10280000A40300200749CA6822F4E062030212040C
:1028100003F4E063120C134343F0BF6343F400334B
:10282000CB60704700ED00E02DE9F341044618B994
:10283000012002B0BDE8F0810368DD0710D42368F1
:1028400098075BD423681A0700F19D8023685B0713
:1028500000F1BB80A269002A40F01C810020E8E75B
:10286000A54B9A6802F00C02042A07D09A6802F07D
:102870000C02082A0AD15A68510207D59E4B1B68E0
:102880009A03DCD56368002BD9D1D1E76268B2F531
:10289000803F11D11A6842F480321A60FEF7FEF9C7
:1028A000954E054633689B03C9D4FEF7F7F9401BE4
:1028B0006428F7D90320BCE78F4DB2F5A02F2B6811
:1028C00007D143F480232B602B6843F480332B60C3
:1028D000E4E723F480332B602B6823F480232B6000
:1028E000002ADBD1FEF7DAF906462B689F03A6D54E
:1028F000FEF7D4F9801B6428F7D9DBE77E4B9A6892
:1029000012F00C0F07D09A6802F00C02082A11D1BD
:102910005B685E020ED4784B1A68950702D5E268B0
:10292000012A85D11A68216922F0F80242EAC1021F
:102930001A6087E7E268714BB2B101221A60FEF7B4
:10294000ADF96D4D06462B68980707D52B682269AF
:1029500023F0F80343EAC2032B6073E7FEF79EF906
:10296000801B0228EFD9A5E71A60FEF797F9624E9F
:102970000546336899077FF565AFFEF78FF9401B71
:102980000228F6D996E762695D4B7AB101221A6096
:10299000FEF784F9584E0546736F9F073FF556AF13
:1029A000FEF77CF9401B0228F6D983E71A60FEF790
:1029B00075F9514E0546736F98077FF547AFFEF7DF
:1029C0006DF9401B0228F6D974E74B4B1A6C12F0D4
:1029D000805228D101921A6C42F080521A641B6C0A
:1029E00003F080530193019B0127464D2B68D905C5
:1029F0001BD5A368404D012B27D12B6F43F001035A
:102A00002B67FEF74BF93C4E054641F28838336F91
:102A10009B0739D5002F3FF41DAF374A136C23F0C5
:102A20008053136416E70027DFE72B6843F48073B5
:102A30002B60FEF733F906462B68DA05D9D4FEF78A
:102A40002DF9801B0228F7D934E7052B04D12B6F11
:102A500043F004032B67D0E72A6F22F001022A67B4
:102A60002A6F22F004022A67002BCAD1FEF716F95A
:102A700041F2883806462B6F9807CBD5FEF70EF942
:102A8000801B4045F7D915E7FEF708F9401B404584
:102A9000BDD90FE7184DAB6803F00C03082B3FF4CA
:102AA000C7AE194E0023022A336035D1FEF7F6F87F
:102AB00007462B68990129D4D4E907321343626A87
:102AC00043EA8213E26A43EA0263A26A5208013AC5
:102AD00043EA02436B6001233360FEF7DFF8064DE3
:102AE00004462B689A013FF5B9AEFEF7D7F8001BF4
:102AF0000228F6D9DEE600BF003802400000474257
:102B0000800E47420070004060004742FEF7C6F862
:102B1000C01B0228CDD9CDE6FEF7C0F804462B68CD
:102B20009B017FF59BAEFEF7B9F8001B0228F6D992
:102B3000C0E600BF134908B58B6803F00C03042BF3
:102B40001CD0082B1CD14A684B68496813F48003D9
:102B500014BF0D480D48C1F3881118BF002302F0BF
:102B60003F02A1FB000108F099FF064B5B68C3F32D
:102B7000014301335B00B0FBF3F008BD0248FCE702
:102B80000248FAE70038024000127A000024F400FC
:102B90002DE9F0410D46044610B90120BDE8F08151
:102BA000434B1A6802F00F028A4227D32268970724
:102BB0002CD4D00740D43E4B1A6802F00F02AA4230
:102BC00065D8226851076BD4130707D5394A2169A4
:102BD000936823F4604343EAC1039360FFF7AAFFBD
:102BE000344B354A9B68C3F30313D35CD840334B53
:102BF00018600F20FEF74CF80020CFE7CAB21A7019
:102C00001B6803F00F038B42C7D1CFE7294B12F0AB
:102C1000040F1EBF996841F4E0519960160742BF46
:102C2000996841F4604199602249A0688B6823F05B
:102C3000F00303438B60BCE762681E4B012A1CD182
:102C40001B6813F4003FA8D01A4EB36823F00303A7
:102C50001343B360FEF722F841F288380746B368A1
:102C6000626803F00C03B3EB820FA4D0FEF716F8F2
:102C7000C01B4045F3D9032090E7911E01291B6832
:102C800002D813F0007FDEE713F0020FDBE7EAB2B1
:102C90001A701B6803F00F03AB427FF47EAF90E71E
:102CA0000449E0688B6823F4E05303438B608BE7AF
:102CB000003C024000380240B9DC0008A8030020B4
:102CC000044B054A9B68C3F38223D35C034A106814
:102CD000D840704700380240C9DC0008A803002033
:102CE000044B054A9B68C3F34233D35C034A106824
:102CF000D840704700380240C9DC0008A803002013
:102D00000F2303600B4B9A6802F0030242609A683B
:102D100002F0F00282609A6802F4E052C2609B689E
:102D2000DB0803F4E0530361034B1B6803F00F035C
:102D30000B60704700380240003C0240036A23F0F9
:102D400001030362036A70B5446882690D6822F06A
:102D500073022A438D6823F002032B430A4DA842D5
:102D60000BD1CD6823F008032B43D1E9055624F499
:102D70004074354323F004032C43446082614A6865
:102D80004263036270BD00BF00000140036A23F488
:102D900080730362036A70B54468C2690D6822F0EB
:102DA00073022A438D6823F4007343EA05230B4D15
:102DB000A8420DD1CD6823F4006343EA0523D1E98D
:102DC000055624F44054354323F4806344EA051443
:102DD0004460C2614A68C263036270BD0000014082
:102DE000036A23F480530362036A30B54468C269FE
:102DF0000D6822F4E64242EA05228D6823F400536E
:102E000043EA0533064DA84202BF4D6924F48044CD
:102E100044EA85144460C2614A680264036230BDBA
:102E20000000014070477047224A036890420ED06C
:102E3000B0F1804F0BD0A2F57C42904207D002F552
:102E40008062904203D002F58062904215D14A68B8
:102E500023F070031343174A904219D0B0F1804F0A
:102E600016D0A2F57C42904212D002F580629042C8
:102E70000ED002F5806290420AD00F4A904207D0ED
:102E800002F58062904203D002F58062904203D145
:102E9000CA6823F44073134303608B68C3620B68F2
:102EA0008362044B984204BF0B69036301234361AF
:102EB000704700BF000001400040014010B50446CB
:102EC000A0B190F8393003F0FF021BB980F8382028
:102ED000FFF7A8FF0223206884F83930211DFFF78F
:102EE000A3FF012384F83930002010BD0120FCE746
:102EF00010B50446A0B190F8393003F0FF021BB9B9
:102F000080F83820FFF78FFF0223206884F83930DB
:102F1000211DFFF789FF012384F83930002010BDFF
:102F20000120FCE7036A23F010030362036A70B513
:102F3000446882690D6822F4E64242EA05228D68FF
:102F400023F0200343EA05130B4DA8420DD1CD68B1
:102F500023F0800343EA0513D1E9055624F44064C5
:102F6000354323F0400344EA8504446082614A68A3
:102F70008263036270BD00BF0000014038B590F865
:102F80003830012B04464FF0020010D00123082AEC
:102F900084F8383084F839003FD009D8DAB1042AEF
:102FA0002AD00123002084F8393084F8380038BD55
:102FB0000C2AF6D12068FFF713FF23680969DA6944
:102FC00042F40062DA61DA6922F48062DA61DA6975
:102FD00042EA012230E02068FFF7B0FE2368096969
:102FE0009A6942F008029A619A6922F004029A6191
:102FF0009A690A439A61D4E72068FFF793FF236830
:1030000009699A6942F400629A619A6922F48062BD
:103010009A619A6942EA0122ECE72068FFF7B6FE5E
:1030200023680969DA6942F00802DA61DA6922F094
:103030000402DA61DA690A43DA61B2E7036A10B5B9
:1030400001248C4023EA04030362036A02FA01F1BB
:103050000B43036210BD000010B504460122006856
:10306000FFF7ECFF2368064A934202BF5A6C42F412
:1030700000425A641A6842F001021A60002010BD32
:1030800000000140FFF7E8BF036A10B504248C403C
:1030900023EA04030362036A02FA01F10B430362A9
:1030A00010BD10B5044604220068FFF7EDFF236849
:1030B0005A6C42F400425A641A6842F001021A60E3
:1030C000002010BDFFF7EDBF2DE9F8430368C1688C
:1030D0001A69044622F440520A431A612569A2681B
:1030E000D968C0692A43656921F416412A4321F051
:1030F0000C0102430A43DA605A69A16922F4407262
:103100000A43B0F5004F5A61774A79D1934203D010
:1031100002F58062934243D1FFF7E2FD636819250F
:103120004FF0640868435B00B0FBF3F3B3FBF8F3C4
:103130001F01FFF7D5FD636868435B00B0FBF3F642
:10314000FFF7CEFD636868435B00B0FBF3F3B3FBAE
:10315000F8F308FB1363DB003233B3FBF8F35B00D7
:1031600003F4F876FFF7BCFD626868435200B0FBD9
:10317000F2F9FFF7B5FD6368226868435B00B0FBB6
:10318000F3F3B3FBF8F308FB1393DB003233B3FB29
:10319000F8F303F007033B4433449360BDE8F8833E
:1031A000FFF78EFD636819254FF0640868435B00E4
:1031B000B0FBF3F3B3FBF8F31F01FFF781FD636886
:1031C00068435B00B0FBF3F6FFF77AFD6368684382
:1031D0005B00B0FBF3F3B3FBF8F308FB1363DB0016
:1031E0003233B3FBF8F35B0003F4F876FFF768FDC6
:1031F000626868435200B0FBF2F9FFF761FDBAE77D
:10320000934202D0394A93423FD1FFF769FD636888
:1032100019254FF0640868439B00B0FBF3F3B3FB40
:10322000F8F31E01FFF75CFD636868439B00B0FB89
:10323000F3F7FFF755FD636868439B00B0FBF3F3BA
:10324000B3FBF8F308FB13731B013233B3FBF8F342
:1032500003F0F007FFF744FD626868439200B0FB9B
:10326000F2F9FFF73DFD6368226868439B00B0FBFD
:10327000F3F3B3FBF8F308FB13931B013233B3FBF7
:10328000F8F303F00F033B4386E7FFF719FD63688C
:1032900019254FF0640868439B00B0FBF3F3B3FBC0
:1032A000F8F31E01FFF70CFD636868439B00B0FB59
:1032B000F3F7FFF705FD636868439B00B0FBF3F38A
:1032C000B3FBF8F308FB13731B013233B3FBF8F3C2
:1032D00003F0F007FFF7F4FC626868439200B0FB6C
:1032E000F2F9FFF7EDFCBEE70010014000140140C9
:1032F000704710B5044640B390F8393003F0FF0230
:103300001BB980F83820FFF7F3FF2268242384F8E4
:103310003930D36823F40053D3602046FFF7D4FE3E
:1033200023681A6922F490421A615A6922F02A022B
:103330005A61DA6842F40052DA6000202023E06328
:1033400084F8393084F83A3010BD0120FCE77FB5AD
:103350000F220223CDE90123032100234FF48052E1
:1033600001A8CDE903320593FFF712FCB0FA80F013
:10337000400907B05DF804FB0D4AD2F8883043F4E9
:103380007003C2F888300B4B1A68002142F001022A
:103390001A6099601A6822F0847222F480321A60EE
:1033A000054A5A601A6822F480221A60D960704770
:1033B00000ED00E0003802401030002410B58EB05F
:1033C0001C4B002400941A6C42F080521A641B6C4F
:1033D000194A03F080530093009B0194136823F46F
:1033E000404343F400431360136803F440430193E4
:1033F000A042019B4FF0010302930CBF4FF48033B6
:103400004FF4A023022203934FF48003CDE9082355
:103410000423C822CDE90A320C9308230DEB0300E4
:103420000D93FFF701FA18B9FFF791FF0EB010BD29
:103430002046FBE7003802400070004010B58EB017
:1034400000241A4B00941A6C42F080521A641B6CD0
:10345000174A03F080530093009B0194136823F4F0
:10346000404343F4004313601368039403F4404360
:103470000193019B032302930123059310230693D9
:103480000223C822CDE908340823CDE90A320DEB26
:1034900003000422CDE90C23FFF7C6F918B9FFF7A2
:1034A00056FF0EB010BD2046FBE700BF00380240BB
:1034B0000070004008B50120FFF780FF28B9FFF732
:1034C000BDFF10B90148FDF74FFD08BDA5DC0008A0
:1034D000174A1849936803F00C03042B10B50DD05C
:1034E000082B0DD0144B0B60114B144A9B68C3F38F
:1034F0000313D25C0B68D3400B6010BD104BF2E796
:103500005468506852686302C2F388124CBF0C4B77
:10351000094B00F03F00B3FBF0F35343044A5268F9
:10352000C2F3014201325200B3FBF2F3DBE700BF0A
:1035300000380240A80300200024F400B9DC000891
:1035400000127A00074B084A13601A69910707D5E1
:10355000DA68920704D56FF002021A61FEF71CBC0C
:10356000704700BF000C00404C1C00200048704712
:10357000D4DC000830B589B001A903A8FFF7C0FB6F
:10358000FFF79EFB002302931E4B01901A6C1E4C0A
:1035900042F008021A641A6C02F008020292029ABF
:1035A0001A6A42F008021A621A6A22F008021A62C3
:1035B000069AA3F50B3323604FF0FF33E360134B00
:1035C000F2B9B0FBF3F00138002560600E482561C8
:1035D000A5606561FFF772FC0D4B0E4A9B68C3F84E
:1035E00008210D4B4FF480225A6007482946FFF707
:1035F00033FD2268D36823F00203D36009B030BDE5
:103600004000DEE7003802404C1C002040420F0022
:1036100000ED00E04535000800E100E004480268E4
:10362000D36823F00203D3600021FFF715BD00BF6C
:103630004C1C0020014B586A704700BF000C004032
:10364000054B1B686FF0020258631A61DA6842F09A
:103650000202DA60704700BF4C1C0020064B1B685A
:103660006FF002021A615A6942F002025A61DA6886
:1036700042F00202DA6070474C1C0020034B1A68CB
:10368000D36823F00203D360704700BF4C1C0020B6
:10369000024B1B686FF002021A6170474C1C00203D
:1036A00082B001900091009B002B05D0019B9B688C
:1036B000019A12681A6005E0019B1A68019BDB6899
:1036C00012041A6000BF02B0704782B00190019BE3
:1036D0005B681A68019B1B681340002B01D0012313
:1036E00000E00023184602B0704700B583B0019097
:1036F0000B46ADF80230019B1A460023136053605D
:103700009360D360136153619361019BBDF9022003
:1037100011461846FDF76BFD019B184603B05DF896
:1037200004FB00B583B00190019B1846FFF7CDFF65
:103730000346184603B05DF804FB00B583B0019062
:103740000B46ADF80230019B1A460023136053600C
:103750009360D360136153619361019BBDF90220B3
:1037600011461846FDF758FD019B184603B05DF859
:1037700004FB00B583B001900091019B00991846AD
:10378000FFF78EFF00BF03B05DF804FB10B584B0F7
:1037900001900B468DF80330002303935849019A9A
:1037A00013465B0013449B000B4408331B78002B2B
:1037B0005BD19DF80330002B25D11C20FDF7DCFFE9
:1037C00003461C464E49019A13465B0013449B0076
:1037D0000B44B3F9003019462046FFF786FF4849ED
:1037E000019A13465B0013449B000B4404331C6096
:1037F0004349019A13465B0013449B000B44083372
:1038000001221A7028E09DF80330012B24D11C20DE
:10381000FDF7B2FF03461C463949019A13465B0087
:1038200013449B000B44B3F9003019462046FFF7C0
:1038300084FF3349019A13465B0013449B000B44F9
:1038400004331C602E49019A13465B0013449B000D
:103850000B44083302221A70019A13465B0013448A
:103860009B00274A1344039345E02549019A1346D8
:103870005B0013449B000B4408331B78012B0CD1D5
:103880009DF80330002B08D1019A13465B001344C6
:103890009B001B4A134403932DE01949019A1346D8
:1038A0005B0013449B000B4408331B78022B0CD1A4
:1038B0009DF80330012B08D1019A13465B00134495
:1038C0009B000F4A1344039315E00D49019A1346D8
:1038D0005B0013449B000B4408331B780A2B08D170
:1038E000019A13465B0013449B00054A134403935B
:1038F00001E000230393039B184604B010BD00BFF2
:10390000D804002000B585B00190019B0293029B72
:10391000002B15D0029B1B7A0A2B08D1029B5B68F7
:103920001846FCF7FEFD03468DF80F300BE0029BB6
:103930005B681846FFF7F5FE03468DF80F3002E08E
:1039400000238DF80F309DF80F30184605B05DF854
:1039500004FB00B585B001900B468DF80330019B48
:103960000393019B002B07D0039B5B689DF803200A
:1039700011461846FFF7FDFE00BF05B05DF804FBD9
:1039800000B585B00190019B0393039B1B7A022B2A
:103990000BD1039B5B68002B03D01C211846FDF75D
:1039A000FFFE039B00221A720EE0039B1B7A012B81
:1039B0000AD1039B5B68002B03D01C211846FDF73E
:1039C000EFFE039B00221A7200BF05B05DF804FBF6
:1039D00000B583B001900B46ADF80230019BBDF9F4
:1039E000022011461846FCF7CDFD019B184603B096
:1039F0005DF804FB00B583B00190019B1846FEF70B
:103A0000E3FA019B1846FCF703FE019B184603B03E
:103A10005DF804FB10B588B005908DED020B8DEDBF
:103A2000001B4649059A13465B0013449B000B4458
:103A300008331B78002B67D11C20FDF79DFE034641
:103A40001C463E49059A13465B0013449B000B44F9
:103A5000B3F9003019462046FFF7BAFF3749059AF7
:103A600013465B0013449B000B4404331C60334932
:103A7000059A13465B0013449B000B4404331B68F8
:103A80001C46DDE902234FF000002D4907F0E8FD58
:103A900002460B461046194607F0B0FF034600EEFB
:103AA000103A2046FCF77FFD2449059A13465B0037
:103AB00013449B000B4404331B681C464FF0000268
:103AC000204BDDE9000107F0CBFD02460B46104616
:103AD000194607F093FF034600EE103A2046FCF724
:103AE0007BFD1649059A13465B0013449B000B446B
:103AF000083304221A70059A13465B0013449B0096
:103B00000E4A1344079315E00C49059A13465B00CF
:103B100013449B000B4408331B78042B08D1059AEF
:103B200013465B0013449B00044A1344079301E0CF
:103B300000230793079B184608B010BDD804002047
:103B40000000F03F0000594082B0019000BF02B079
:103B50007047000010B586B003908DED000B039BFD
:103B60000593059B002B19D0059B1B7A042B15D1BF
:103B7000059B5B681C464FF000020A4BDDE9000123
:103B800007F06EFD02460B461046194607F036FF59
:103B9000034600EE103A2046FCF71EFD00BF06B0BB
:103BA00010BD00BF0000594010B584B00190019BCA
:103BB0000393039B002B14D0039B1B7A042B10D17F
:103BC000039B5C68002C06D02046FFF713FF1C21E6
:103BD0002046FDF7E5FD039B00221A72039B00229D
:103BE0005A6000BF04B010BD82B0019000BF02B0A7
:103BF000704784B00190009100238DF80F309DF93B
:103C00000F30184604B0704700B585B001900091A0
:103C100000238DF80B30019B002B02D14FF0FF33B6
:103C200058E0009B002B02D14FF0FF3352E02B4BAA
:103C3000D3E900014FF000024FF0404307F04EFE81
:103C40000346002B06D0009BD3E900232349C1E99A
:103C5000002305E0214BD3E900230099C1E90023AB
:103C60001E4BD3E90023019B5B681B681C4A136051
:103C7000019B5B685B681B4A1360019B5B689B68E8
:103C8000194A1360019B5B68DB68184A1360184B84
:103C900000221A6001F09AFB002303930023039390
:103CA00007E0144A039B144942F82310039B013395
:103CB0000393039B022BF4D901F004F803468DF81B
:103CC0000B309DF90B30002B02D10C4B01221A70E6
:103CD0009DF90B30184605B05DF804FB90040020F8
:103CE000A40B0020A80B0020AC0B0020B00B002080
:103CF000B40B0020380A002029540008A20B002031
:103D000000B587B0019000238DF81730002304938D
:103D100000238DF80F302E4B1B78DBB2002B0CBF2D
:103D200001230023DBB28DF80E302A4B02221A70D9
:103D3000019B002B0BD1264B1B78DBB2002B06D14D
:103D4000254B1B78DBB2002B01D1012300E00023BF
:103D50008DF80F3017E00A20FEF740FD049B03F5B5
:103D60001C5310330493019BB3F1FF3F05D0049A19
:103D7000019B9A4201D9012300E000238DF80F3006
:103D8000002000F0DDFF124B1B78DBB2002B08D1C6
:103D9000114B1B78DBB2002B03D19DF80F30002BA9
:103DA000D9D00C4B03221A709DF80F30002B02D093
:103DB0009C238DF817309DF80E30002B01D001F0B8
:103DC0002DFC9DF91730184607B05DF804FB00BFC5
:103DD000A00B0020A20B0020A10B002000B587B093
:103DE00003468DED000BADF80E3000238DF8173033
:103DF00001238DF816304FF000024FF00003DDE98B
:103E0000000107F075FD0346002B02D04FF0FF3391
:103E100052E0BDF80E30FF2B02D94FF0FF334BE0DC
:103E2000274B1B78DBB2032B04D0254B1B78DBB26E
:103E3000012B02D1224B04221A70BDF80E30022B46
:103E40001BD8BDF80E301F4A52F82330002B14D077
:103E500001F056FF03468DF815309DF81530022B02
:103E60000BD1BDF80E30174A52F82330BDF80E20A2
:103E70001046984703468DF81630BDF80E30ADF861
:103E80001230BDF80E3018469DED000B00F07CFEA0
:103E90009DF81630002B08D0BDF81230184601F0FE
:103EA00009FF03468DF8173004E0BDF812301846BC
:103EB00001F051FF9DF91730184607B05DF804FB7B
:103EC000A20B0020380A002000B583B000238DF833
:103ED0000730002000F034FF03468DF807309DF9CD
:103EE0000730184603B05DF804FB000000B583B04E
:103EF00000238DF807300C4B06221A7000F0BCFF2F
:103F000003468DF807300C220021084808F00CFF0A
:103F100001F00EFB044B00221A709DF90730184681
:103F200003B05DF804FB00BFA20B0020380A00209C
:103F3000024B1B78DBB21846704700BFA10B002074
:103F4000024B1B78DBB21846704700BFB80B00204D
:103F500030B587B04FF000024FF00003CDE90223E7
:103F6000814B1B785A1CD1B27F4A1170002B09D0AB
:103F70007E4B01221A607C4B1B78013BDAB27A4BF4
:103F80001A70E7E001AB184600F0A8F962B600BF6E
:103F9000774B1B68D3E90823CDE9022300F0ECF945
:103FA0009DED020B0020FFF719FF72B600BF6E4BAC
:103FB0001B78013BDAB26C4B1A700123059324E0A5
:103FC00001AA059B13441B78002B1BD0694A059B53
:103FD00013441B785A1CD0B26649059A0A4401461C
:103FE0001170002B0ED0614B01221A60614A059BB3
:103FF00013441B78013BD9B25E4A059B13440A4621
:104000001A7005E0059B01330593059B022BD7DD54
:104010000123059398E0544A059B13441B78002B19
:1040200040F09780534A059B13441B78002B00F007
:1040300088804D4A059B13441B780133D9B24A4A04
:10404000059B13440A461A7062B600BF059B012BFC
:1040500003D0059B022B2ED05BE0454B1B689B6B6E
:10406000184607F059F904460D46414B1B68DB6BB7
:10407000184607F051F94FF000023F4B07F0C6F920
:1040800002460B462046294607F00AF802460B4630
:104090001046194630A3D3E9002307F0B7F90246CA
:1040A0000B46CDE9022300F0F5FA9DED020B01204D
:1040B000FFF794FE2DE02E4B1B681B6C184607F093
:1040C0002BF904460D462A4B1B685B6C184607F01B
:1040D00023F94FF00002284B07F098F902460B46EF
:1040E0002046294606F0DCFF02460B4610461946DC
:1040F0001BA3D3E9002307F089F902460B46CDE95B
:10410000022300F009FB9DED020B0220FFF766FE83
:1041100000BF72B600BF174A059B13441B78013BD2
:10412000D9B2144A059B13440A461A700E4A059BDD
:1041300013441B78013BD9B20B4A059B13440A4632
:104140001A70059B01330593059B022B7FF763AF24
:1041500000E000BF07B030BD7B14AE47E17A843F7A
:104160009A9999999999B93F480A0020440A0020E0
:10417000DCDC00084C0A00200000F04100B585B0EE
:10418000504B0393504B029300238DF807304F4B55
:1041900000221A704E4B00221A7001DFFEF704FB5A
:1041A000FFF796F94B4B1B6800221A600021002094
:1041B000FFF71FFD03468DF807309DF90730002BF0
:1041C00002D09DF9073078E000F002FB414B1B68FC
:1041D0005A68404B1B68503319461046FFF714FDD0
:1041E00003468DF807309DF90730002B0DD14FF0B5
:1041F000FF30FFF785FDFFF79BFE0346002B04D041
:10420000344B1B68012283F858209DED030A06F009
:10421000F9FBFFF795FE0346002B0CD1FFF788FE54
:104220000346002B07D12B4B1B6893F85830002B0B
:1042300001D1012300E00023DAB2254B1A7062B6E7
:1042400000BF30E0FFF740FE03468DF80730FFF770
:1042500077FE0346002B0AD1FFF76AFE0346002BC8
:1042600005D11C4B1B6893F85830002B01D001235B
:1042700000E00023DAB2154B1A70144B1B78DBB246
:10428000002B0CBF01230023DBB21A46104B1A701F
:104290000E4B1B78DBB2002B05D00F4B1B680E4A70
:1042A00023F0010313600A4B1B78DBB2002BC9D14A
:1042B00000F0CCFBFFF71AFE0023184605B05DF8AE
:1042C00004FB00BF17B7D1380000C8424F0A0020D6
:1042D000500A0020DCDC000810E000E082B0019011
:1042E0000C4BB3F84A30002B0CBF01230023DAB289
:1042F000019B01331A70074BB3F84C30002B0CBFF5
:1043000001230023DAB2019B02331A7000BF02B00E
:10431000704700BF100B0020164BB3F84A30002B3B
:104320000CBF01230023DAB2124B83F84E20114B4D
:10433000B3F84A20013292B2A3F84A200D4BB3F8E9
:104340004A30632B03D90B4B0022A3F84A20094BB8
:10435000B3F84C20013292B2A3F84C20054BB3F8CD
:104360004C30B3F57A7F03D3024B0022A3F84C20E4
:1043700000BF7047100B002070B582B0FFF7CCFF74
:10438000784BD3E91C237849C1E90023764BD3E964
:1043900000237649C1E90023754B93F84E30002B7A
:1043A00005D0714BD3E900236F49C1E902236D4B5E
:1043B000D3E90A016F4BD3E9022307F08FFA0346D2
:1043C000002B05D16B4BD3E902236649C1E90A23CF
:1043D000644B5B6A1846FFF795FA03461A46624B30
:1043E0005A76604BD3E90401624BD3E9042307F00A
:1043F00075FA0346002B05D15E4BD3E904235949D6
:10440000C1E90423574BDB681846FFF77BFA0346E4
:104410001A46554B1A76534BDC6B564BD3E92801A1
:1044200001231D464FF000024FF0000307F056FA3B
:104430000346002B01D000231D46EBB2194620464F
:10444000FFF787FA474BDC6D4A4BD3E92A0101237A
:104450001D464FF000024FF0000307F03FFA0346FD
:10446000002B01D000231D46EBB219462046FFF772
:1044700070FA3C4BDC6C3F4BD3E92C0101231D4609
:104480004FF000024FF0000307F028FA0346002B1C
:1044900001D000231D46EBB219462046FFF759FA1A
:1044A000304B93F88030002B06D0324B93F8DA3043
:1044B000184606F041FF03E04FF000004FF0000106
:1044C0004FF000022C4B06F0A1FF02460B461446AB
:1044D0001D46254B5B7E002B06D0264B93F8DB3028
:1044E000184606F029FF03E04FF000004FF00001EE
:1044F0004FF00002214B06F089FF02460B46204692
:10450000294606F0CDFD02460B4614461D46154BC6
:1045100093F88130002B06D0164B93F8DC30184608
:1045200006F00AFF03E04FF000004FF000014FF0EB
:104530000002134B06F06AFF02460B46204629464E
:1045400006F0AEFD02460B4614461D46064B1B7E8A
:10455000002B17D0074B93F8DD30184606F0ECFE21
:1045600014E000BF780A0020580A0020000B002049
:10457000100B0020B00300200000B03F0000A03F5F
:104580000000903F4FF000004FF000014FF000029C
:104590004FF07E5306F03AFF02460B46204629466E
:1045A00006F07EFD02460B46CDE900234FF00002E7
:1045B000324BDDE9000107F0B9F90346002B04D0C6
:1045C0004FF000022D4BCDE90023DDE9000107F09B
:1045D000CDF903462A4A0433DB001344D3E9000132
:1045E000284BD3E9002306F05BFD02460B46264923
:1045F000C1E91C23234B5A7E234B83F88020214B97
:104600001A7E214B83F88120204B9A6A01329A62EC
:104610009B6A002B03D11D4BDA6A0132DA621B4B15
:104620009B6A184606F078FE184BD3E90C2306F077
:10463000EDFE02460B4614461D46144BDB6A184637
:1046400006F06AFE114BD3E90C2306F0DFFE0246AA
:104650000B46104619464FF000020D4B06F0D6FEF1
:1046600002460B46094E2046294606F019FD024631
:104670000B46C6E9082300BF02B070BD00002E4003
:10468000B0030020580A0020780A0020100B0020F8
:104690000000F04100B583B0194BD3E90201194B7A
:1046A000D3E92E2306F0B2FE02460B46CDE90023E5
:1046B000154BD3E91E23DDE9000106F0EFFC0246AD
:1046C0000B460F49C1E904230D4BD3E904230F49DD
:1046D000C1E902230C49DDE90023C1E91E230C4B8B
:1046E0009A6B01329A630A4B9B6B002B03D1084BE8
:1046F000DA6B0132DA6300BF03B05DF804FB00BF80
:10470000580A0020B0030020780A0020000B002087
:10471000100B00200000000030B583B0284B1B6C4C
:10472000184606F0F9FD04460D46254B5B6C18460D
:1047300006F0F2FD4FF00002224B06F067FE024643
:104740000B462046294606F0ABFC02460B461046B7
:10475000194619A3D3E9002306F058FE02460B467A
:1047600010461946184BD3E9302307F0C1F8034629
:10477000002B05D0144BD3E93223CDE9002304E00C
:10478000114BD3E93423CDE90023104BDB6E9DEDB3
:10479000000B1846FFF7DEF9094B1A6C01321A6458
:1047A000074B1B6C002B03D1054B5A6C01325A642A
:1047B00000BF03B030BD00BF9A9999999999B93F4C
:1047C000100B00200000F041B0030020780A002008
:1047D00000B583B0904B60220021184608F0A4FA7F
:1047E0008D494FF000028D4BC1E914238A4984A3FF
:1047F000D3E90023C1E90C23874B894A9A60864B91
:10480000884ADA60844B884A1A61834B874A5A6126
:10481000814B874A5A60864B864A1A60854B864A86
:104820001A60844B844A5A60824B834A9A60814B57
:10483000814ADA607F4B804A1A617E4B7E4A5A6118
:104840007C4B7D4A9A61744A734B5B6818329A605C
:10485000714A714B5B6808325A606F4A6E4B5B68F5
:104860002032DA6020220021744808F05DFA8822A4
:104870000021734808F058FA10220021714808F00E
:1048800053FA6F4B00221A766D4B012283F8852074
:104890006D4BD3E902236A49C1E90A23684B01221F
:1048A000DA611123019300210198FEF76FFF03469F
:1048B000634A5362624B012283F82020604B00223E
:1048C0001A705F4B012283F884205F4BD3E90423E5
:1048D0005B49C1E904235A4B01225A60102301931A
:1048E00000210198FEF752FF0346554AD360544B0E
:1048F00001221A72524B002283F83020504B0122C1
:1049000083F883204E4B01225A6303230193012134
:104910000198FEF73BFF0346494AD363484B012207
:1049200083F83820464B002283F85020444B012264
:1049300083F88720424B01225A650223019301210B
:104940000198FEF723FF03463D4AD3653C4B012205
:1049500083F858203A4B002283F84020384B01223C
:1049600083F88620364B01225A640B2301930121E0
:104970000198FEF70BFF0346314AD364304B012206
:1049800083F848202E4B002283F860202C4B012214
:1049900083F882202A4B01225A66052301939FED5A
:1049A0001A1B9FED1B0B0198FFF734F80346244AAE
:1049B000D366234BDB6E1846FFF7C6F8204B012267
:1049C00083F86820204BD3E906231D49C1E91C2345
:1049D0001D4B93F8D8201A4B83F880201A4B93F87C
:1049E000D920174B83F88120174BD3E900231449B2
:1049F000C1E91E2300BF03B05DF804FBAFF30080E4
:104A00002D431CEBE2361A3F0000000000000000BE
:104A1000000000000088B340100B0020000014408C
:104A2000872C5F1EF163BA93098CDA087737827B93
:104A3000700B0020840B0020E0DC0008580A0020E6
:104A4000780A0020000B0020B003002008B5464B78
:104A50001B7E002B10D1444B01221A76424BDB699E
:104A6000012B09D1404B93F82030002B04D03E4B52
:104A70005B6A1846FEF784FF3B4B1B78002B0FD177
:104A8000394B01221A70384B5B68012B08D1364B29
:104A90001B7A002B04D0344BDB681846FEF770FFFE
:104AA000314B93F83030002B11D12F4B012283F87A
:104AB00030202D4B5B6B012B09D12B4B93F83830F9
:104AC000002B04D0284BDB6B1846FEF759FF264B12
:104AD00093F85030002B11D1234B012283F8502042
:104AE000214B5B6D012B09D11F4B93F85830002BE4
:104AF00004D01D4BDB6D1846FEF742FF1A4B93F8AE
:104B00004030002B11D1184B012283F84020164B66
:104B10005B6C012B09D1144B93F84830002B04D067
:104B2000114BDB6C1846FEF72BFF0F4B93F86030F0
:104B3000002B16D10C4B012283F860200A4B5B6ED0
:104B4000012B0ED1084B93F86830002B09D0064B8F
:104B5000DB6E1846FFF728F8034BDB6E1846FFF7AD
:104B600043F800BF08BD00BF780A002084B003905E
:104B700002910192039B029A1A60039B0433019AEB
:104B80001A6000BF04B0704770B58AB08DED020B9B
:104B90000346ADF80630BDF80630002B77D14FF054
:104BA0000002414BDDE9020106F030FC02460B46F3
:104BB000CDE906239FED381B9DED060B06F0F6F8B8
:104BC00053EC102B1046194606F0F8FE03460593E9
:104BD0000023099332A3D3E90023DDE9060106F09F
:104BE000A5FE0346002B0ED02DA3D3E90023DDE95B
:104BF000060106F035FD02460B461046194606F042
:104C0000DDFE03460993099A05992848FFF7AEFF90
:104C1000274BD3E900014FF00002264B06F05EFE61
:104C20000346002B2ED1224BD3E900014FF00002A6
:104C30004FF0404306F052FE0346002B22D11C4B9E
:104C4000D3E90001DDE9022306F028FA02460B460B
:104C500014461D464FF00002174BDDE9020106F035
:104C6000D5FB02460B4601210E462046294606F09A
:104C70003FFE0346002B01D100231E46F3B21A4625
:104C80000E4B1A700E49DDE90223C1E9002300BF73
:104C90000AB070BDAFF30080000000000000F041DA
:104CA0000000E0FFFFFFEF4100408F40C80B0020F5
:104CB000900400200000F0BF0000B03CB80B0020C2
:104CC000D00B002000B585B0002302930023019390
:104CD00000238DF80F3019494FF000024FF0000308
:104CE000C1E9002301AA02AB1146184605F0B6FB44
:104CF000029B019A1146184603F0C8FD03468DF841
:104D00000F309DF90F30002B02D09DF90F3010E0CD
:104D100001AA02AB1146184605F0B2FB029B019AAC
:104D20001146184600F0E8FE03468DF80F309DF955
:104D30000F30184605B05DF804FB00BFC00B002023
:104D400000B585B003468DF8073000238DF80F308D
:104D500000238DF80E300020FDF740FD00238DF874
:104D60000D3003F023FF03468DF80F309DF90F300F
:104D7000002B08D09DF90F3013F1020F03D001234F
:104D80008DF80E300DE09DF80D30002B04D19DF90B
:104D90000F3013F1020F01D0012300E000238DF842
:104DA0000D309DF80E30002B1FD100F0D1FE0346D0
:104DB0008DF80F309DF90F30002B08D09DF90F3082
:104DC00013F1020F03D001238DF80E300DE09DF892
:104DD0000D30002B04D19DF90F3013F1020F01D0DB
:104DE000012300E000238DF80D309DF80E30002BDC
:104DF0001FD103F067FE03468DF80F309DF90F3089
:104E0000002B08D09DF90F3013F1020F03D00123BE
:104E10008DF80E300DE09DF80D30002B04D19DF97A
:104E20000F3013F1020F01D0012300E000238DF8B1
:104E30000D309DF80730002B10D00020FDF7CEFC80
:104E40009DF80E30002B03D19DF80D30002B01D1C1
:104E5000012300E000238DF80E3002E001238DF8DD
:104E60000E309DF80E30002B3FF478AF9DF90F30D7
:104E7000184605B05DF804FB00B583B000238DF83B
:104E80000230314B1B78DBB2002B02D0002000F047
:104E900053FF00F035FF03468DF8033000230193E4
:104EA0000FE00A20FDF79AFC019B03F51C53103319
:104EB00001930120FFF744FF00F022FF03468DF825
:104EC0000330019B214A934203D89DF80330002B05
:104ED000E7D100F01BFF03468DF8023003F0A2FF7C
:104EE00003468DF802301A4B00221A70194B00222B
:104EF0001A70194B00221A60184B00221A60184BC6
:104F000000221A60174B00221A60174B00221A6009
:104F100016494FF000024FF04043C1E900230A4B0D
:104F200000221A7008220021114807F0FDFE1149E5
:104F30004FF000024FF00003C1E900239DF9023059
:104F4000184603B05DF804FBB80B0020FF2C3101BC
:104F5000A00B0020A10B0020A40B0020A80B002018
:104F6000AC0B0020B00B0020B40B002090040020FC
:104F7000C80B0020D00B002000B587B0634B1B6826
:104F80000593059B002B00F0BC80614B1B78DBB2C6
:104F9000002B04D15D4B1B68002B00F0B2805D4BF1
:104FA0001B78DBB2022B40F0AC805B4B1B78002BF4
:104FB00040F0A780059BD3E90023CDE90223574B9E
:104FC0001B78002B00F08E80554B1B78DBB2002B3A
:104FD00004D0534B1B78DBB2022B01D1012300E03C
:104FE00000238DF807304E4B1B78DBB2012B04D029
:104FF0004B4B1B78DBB2022B01D1012300E00023D5
:105000008DF806309DF80730002B33D0454BD3E99F
:105010000023DDE9020106F07FFC0346002B0AD0E5
:10502000414BD3E900013F4BD3E9002306F060FC7C
:105030000346002B14D13B4BD3E90023DDE90201E9
:1050400006F074FC0346002B14D0374BD3E9000163
:10505000344BD3E9002306F041FC0346002B09D072
:10506000324B1B68002B02D1314B01221A702A4BA4
:1050700001221A709DF80630002B33D0294BD3E95A
:105080000023DDE9020106F033FC0346002B0AD0C1
:10509000254BD3E90001234BD3E9002306F03CFC68
:1050A0000346002B14D11F4BD3E90023DDE9020195
:1050B00006F014FC0346002B14D01B4BD3E900016F
:1050C000184BD3E9002306F031FC0346002B09D02E
:1050D000164B1B68002B02D1154B01221A700E4B88
:1050E00001221A700C4B1B78002B0CBF01230023EC
:1050F000DBB21A46094B1A700B49DDE90223C1E9FC
:10510000002300BF07B05DF804FB00BFDC0B0020EC
:10511000E00B0020FC0B00200B0C0020080C0020F2
:10512000F80B0020E80B0020000C0020F40B0020FE
:105130000A0C002082B000238DF80730984B1B78B2
:10514000DBB2002B19D1974B00221A70964B00222C
:105150001A70964B1B78DBB2002B30D0904B02229A
:105160001A70924B00221A70914B1B78DBB2002B05
:1051700025D101238DF8073021E08C4B00221A70D5
:10518000884B1B78DBB2002B09D08A4B00221A70A7
:10519000834B00221A70834B00221A700FE0844B5D
:1051A0001B78DBB2002B03D101238DF8073006E01A
:1051B0007D4B1B788DF807307B4B00221A70784BA3
:1051C0001B78DBB2042B00F2D18001A252F823F04D
:1051D000E551000817530008FF510008D15200089C
:1051E00059520008714B1B78DBB2002B00F0CB80CA
:1051F0006B4B02221A706D4B00221A70C3E09DF8AF
:105200000730002B00F0C1806B4B1B68002B0DDDBD
:10521000674B1B78DBB2012B08D1674B1B681A4622
:10522000664B1A605E4B03221A70AEE0644B1B683B
:10523000002B0AD05F4B01221A70614B1B685F4A3A
:105240001360574B04221A709FE05A4B00221A70C9
:10525000534B00221A7098E0584B1B68002B04D067
:10526000564B1B68013B554A1360544B1B68002B7F
:1052700040F08D80534B1B78DBB2012B06D14D4B98
:1052800000221A70464B00221A7080E04E4B1B68B9
:10529000002B0AD0474B00221A704B4B1B68474A21
:1052A00013603F4B01221A7071E09DF80730002B0C
:1052B00007D0434B1B68414A1360394B04221A70D4
:1052C00065E03C4B00221A70354B02221A705EE0FA
:1052D0003A4B1B68002B04D0384B1B68013B374A04
:1052E0001360364B1B68002B53D1354B1B68002BCA
:1052F0000AD0304B01221A70314B1B682F4A1360C1
:10530000274B04221A7044E02A4B00221A70244BC7
:1053100000221A703DE0294B1B68002B04D0274B5C
:105320001B68013B254A1360244B1B68002B32D1BC
:105330009DF80730002B15D0214B1B68002B0AD09D
:105340001C4B01221A701E4B1B681C4A1360144B25
:1053500004221A701FE0174B00221A70104B002213
:105360001A7018E00E4B02221A7014E0114B002242
:105370001A700D4B00221A700A4B00221A70084B4B
:1053800000221A7008E000BF06E000BF04E000BF82
:1053900002E000BF00E000BF00BF02B0704700BFE6
:1053A000FC0B0020F90B00200B0C00209C040020BB
:1053B000FA0B00200A0C0020F40B00200C0C00203B
:1053C00098040020FB0B0020F00B00200E494FF04A
:1053D00000024FF00003C1E900230C4B00221A70B9
:1053E0000B4B1B78DAB20B4B1A700B4B00221A7066
:1053F0000A4B00221A700A4B00221A60094B002245
:105400001A70002318467047000C0020080C00207A
:10541000FA0B0020090C00200A0C00200B0C0020C5
:105420000C0C0020FC0B002000B585B00346ADF845
:105430000630BDF80630002B41D1334B1B78DAB271
:10544000324B1B789A4214BF01230023DBB28DF844
:105450000F302D4B1B78DAB22C4B1A709DF80F30A1
:10546000002B0BD02A4B00221A702A4B00221A70F4
:10547000294B00221A60294B00221A70224B1B78FC
:10548000DBB2012B1BD1254B1B78DBB2002B04D1E7
:10549000234B1B78DBB2002B08D1204B1B78DBB2EF
:1054A000012B0CD11C4B1B68012B08D11A4B00227D
:1054B0001A601B4B00221A70184B02221A70124BF2
:1054C0001B78DBB2012B08D1164B1B889BB2BDF8B1
:1054D00006209A4201D1FFF74FFDBDF80630002BA0
:1054E00005D1FFF727FE104B00221A7006E00E4B85
:1054F0001B78002B02D00D4B1B7801E0044B1B786E
:10550000184605B05DF804FBFA0B0020090C0020DA
:105510000A0C00200B0C00200C0C0020FC0B0020BF
:105520009C040020D80B0020110C0020100C00203F
:1055300025494FF000024FF00003C1E90023234B3F
:1055400000221A70224B00221A70224B00221A707D
:10555000214B00221A80214B00221A70204B00227E
:105560001A70204B00221A601F4B00221A701F4B2A
:1055700000221A701E4B00221A601E4B00221A7065
:105580001D494FF000024FF00003C1E900231B4BFF
:105590004FF47A721A601A4B00221A60194B0022DB
:1055A0001A60194B00221A70184B01221A70184BFE
:1055B00000221A70174B00221A70174B00221A7023
:1055C00000231846704700BF000C0020080C002084
:1055D000FC0B0020090C0020D80B00200A0C002036
:1055E0000B0C00200C0C0020100C0020110C0020D3
:1055F000DC0B0020E00B0020E80B002098040020CA
:10560000F00B0020F40B0020F80B00209C0400207D
:10561000F90B0020FA0B0020FB0B0020184B1B7825
:10562000DBB2002B29D1174B1B78DBB2002B0BD040
:10563000154B1B78DBB2002B06D1144B01221A70DC
:10564000134B01221A7018E00F4B1B78DBB21A467D
:105650000C4B1B78DBB2002B0CBF01230023DBB209
:105660001340002B06D0094B00221A70084B012270
:105670001A7002E0064B00221A7000BF704700BF8C
:10568000FA0B00209C040020F90B0020100C0020D5
:10569000110C002000B587B0039002910192009395
:1056A00000238DF8173003F0B7FB0490039B1B68B1
:1056B000184603F0D1FD0021009803F03AFB0246A2
:1056C000029B1A6003F026FB0246019B1A60029BB4
:1056D0001B68002B10D0029B1B681946049804F02D
:1056E000D3F80246039B1A60039B1B68002B06D16C
:1056F000F6238DF8173002E0F8238DF817309DF966
:105700001730184607B05DF804FB00B585B003906C
:1057100002910192039B002B02D0039803F09CFDA1
:10572000019B00221A600023184605B05DF804FBB7
:1057300084B0039002910192019B02221A604FF003
:10574000FF33184604B0704784B003460A468DF80C
:10575000073013468DF8063005238DF80F309DF87D
:105760000730F02B03D900238DF80F302EE09DF881
:105770000730E32B07D99DF80730F02B03D801231E
:105780008DF80F3022E09DF80730D22B03D99DF819
:105790000730E22B0BD99DF80730C02B0BD19DF8B9
:1057A0000630002B07D09DF80630022B03D80223C9
:1057B0008DF80F300AE09DF80730C72B06D99DF809
:1057C0000730D22B02D803238DF80F309DF80F300D
:1057D000184604B07047000000B58DB003900291E8
:1057E00001920093039B0A930A9B1B788DF8273044
:1057F00000238DF82F309DF82730C02B06D1029B57
:10580000012B03D90A9B5B788DF82F30374B1B781F
:10581000002B41D09DF82F209DF8273011461846C7
:10582000FFF792FF03468DF81B3000238DF82E30D2
:105830009DF81B30052B24D09DF81B302C4A52F8C4
:105840002330059300230493059B002B19D09DF86A
:105850002720059B104698470490049B002B14BFFB
:1058600001230023DBB28DF82E309DF82E30002B63
:1058700007D0049B5A68019B1A60049B9A68009B9E
:105880001A609DF82E30002B2CD1019B194A1A600A
:10589000009B194A1A6025E09DF82730FF2B1BD189
:1058A000134B1B680893019B00221A60009B002287
:1058B0001A60089B002B15D0089BFF209847079083
:1058C000079B002B0ED0079B5A68019B1A60079B11
:1058D0009A68009B1A6005E0019B084A1A60009BC9
:1058E00000221A6000BF0DB05DF804FB130C00200D
:1058F000180C002031570008915900080B57000878
:1059000082B003468DF80730034A9DF807301370C4
:1059100000BF02B0704700BF130C0020014B1B7882
:1059200018467047140C002082B003468DF80730EB
:10593000054B1A789DF807301343DAB2024B1A7000
:1059400000BF02B0704700BF140C002082B00346B5
:105950008DF807309DF90730DB435AB2054B1B78B1
:105960005BB213405BB2DAB2024B1A7000BF02B0F6
:10597000704700BF140C0020014B1B78184670477D
:10598000150C0020014B1B8818467047160C002090
:1059900086B00346029101928DF80F309DF90F30C9
:1059A000002B05D1029B0493049BFF221A706BE02D
:1059B000029B0593059BFE221A709DF90F300F3351
:1059C0000E2B5DD801A252F823F000BF795A0008CF
:1059D000715A0008695A0008615A0008595A0008AB
:1059E000495A0008515A0008415A0008395A00081B
:1059F000315A0008295A0008115A0008095A0008AB
:105A0000195A0008215A0008059B30225A703BE0C1
:105A1000059B29225A7037E0059B22225A7033E0F9
:105A2000059B20225A702FE0059B00225A702BE024
:105A3000059B23225A7027E0059B21225A7023E000
:105A4000059B11225A701FE0059B27225A701BE00C
:105A5000059B2A225A7017E0059B10225A7013E00A
:105A6000059B24225A700FE0059B28225A700BE0F8
:105A7000059B26225A7007E0059B31225A7003E0ED
:105A8000059B20225A70FFE700BF06B0704700BF99
:105A900086B00346029101928DF80F3000230593E2
:105AA000029B002B24D0002304930023049318E0CE
:105AB000049A13465B0013449B001A46029B13444E
:105AC0001B789DF80F209A4208D1049A13465B0078
:105AD00013449B001A46029B13440593049B013315
